{
  "contractName": "FST",
  "abi": [
    {
      "inputs": [
        {
          "internalType": "uint256",
          "name": "_initialAmount",
          "type": "uint256"
        },
        {
          "internalType": "string",
          "name": "_tokenName",
          "type": "string"
        },
        {
          "internalType": "uint8",
          "name": "_decimalUnits",
          "type": "uint8"
        },
        {
          "internalType": "string",
          "name": "_tokenSymbol",
          "type": "string"
        }
      ],
      "stateMutability": "nonpayable",
      "type": "constructor"
    },
    {
      "anonymous": false,
      "inputs": [
        {
          "indexed": true,
          "internalType": "address",
          "name": "_owner",
          "type": "address"
        },
        {
          "indexed": true,
          "internalType": "address",
          "name": "_spender",
          "type": "address"
        },
        {
          "indexed": false,
          "internalType": "uint256",
          "name": "_value",
          "type": "uint256"
        }
      ],
      "name": "Approval",
      "type": "event"
    },
    {
      "anonymous": false,
      "inputs": [
        {
          "indexed": true,
          "internalType": "address",
          "name": "_from",
          "type": "address"
        },
        {
          "indexed": true,
          "internalType": "address",
          "name": "_to",
          "type": "address"
        },
        {
          "indexed": false,
          "internalType": "uint256",
          "name": "_value",
          "type": "uint256"
        }
      ],
      "name": "Transfer",
      "type": "event"
    },
    {
      "anonymous": false,
      "inputs": [
        {
          "indexed": false,
          "internalType": "bool",
          "name": "newState",
          "type": "bool"
        }
      ],
      "name": "TransferState",
      "type": "event"
    },
    {
      "inputs": [
        {
          "internalType": "address",
          "name": "",
          "type": "address"
        },
        {
          "internalType": "address",
          "name": "",
          "type": "address"
        }
      ],
      "name": "allowed",
      "outputs": [
        {
          "internalType": "uint256",
          "name": "",
          "type": "uint256"
        }
      ],
      "stateMutability": "view",
      "type": "function",
      "constant": true
    },
    {
      "inputs": [
        {
          "internalType": "address",
          "name": "",
          "type": "address"
        }
      ],
      "name": "balances",
      "outputs": [
        {
          "internalType": "uint256",
          "name": "",
          "type": "uint256"
        }
      ],
      "stateMutability": "view",
      "type": "function",
      "constant": true
    },
    {
      "inputs": [],
      "name": "decimals",
      "outputs": [
        {
          "internalType": "uint8",
          "name": "",
          "type": "uint8"
        }
      ],
      "stateMutability": "view",
      "type": "function",
      "constant": true
    },
    {
      "inputs": [],
      "name": "name",
      "outputs": [
        {
          "internalType": "string",
          "name": "",
          "type": "string"
        }
      ],
      "stateMutability": "view",
      "type": "function",
      "constant": true
    },
    {
      "inputs": [],
      "name": "owner",
      "outputs": [
        {
          "internalType": "address",
          "name": "",
          "type": "address"
        }
      ],
      "stateMutability": "view",
      "type": "function",
      "constant": true
    },
    {
      "inputs": [],
      "name": "symbol",
      "outputs": [
        {
          "internalType": "string",
          "name": "",
          "type": "string"
        }
      ],
      "stateMutability": "view",
      "type": "function",
      "constant": true
    },
    {
      "inputs": [],
      "name": "totalSupply",
      "outputs": [
        {
          "internalType": "uint256",
          "name": "",
          "type": "uint256"
        }
      ],
      "stateMutability": "view",
      "type": "function",
      "constant": true
    },
    {
      "inputs": [],
      "name": "getTransferState",
      "outputs": [
        {
          "internalType": "bool",
          "name": "",
          "type": "bool"
        }
      ],
      "stateMutability": "view",
      "type": "function",
      "constant": true
    },
    {
      "inputs": [
        {
          "internalType": "bool",
          "name": "newState",
          "type": "bool"
        }
      ],
      "name": "setTransferState",
      "outputs": [
        {
          "internalType": "bool",
          "name": "",
          "type": "bool"
        }
      ],
      "stateMutability": "nonpayable",
      "type": "function"
    },
    {
      "inputs": [
        {
          "internalType": "address",
          "name": "_to",
          "type": "address"
        },
        {
          "internalType": "uint256",
          "name": "_value",
          "type": "uint256"
        }
      ],
      "name": "transfer",
      "outputs": [
        {
          "internalType": "bool",
          "name": "success",
          "type": "bool"
        }
      ],
      "stateMutability": "nonpayable",
      "type": "function"
    },
    {
      "inputs": [
        {
          "internalType": "address",
          "name": "_from",
          "type": "address"
        },
        {
          "internalType": "address",
          "name": "_to",
          "type": "address"
        },
        {
          "internalType": "uint256",
          "name": "_value",
          "type": "uint256"
        }
      ],
      "name": "transferFrom",
      "outputs": [
        {
          "internalType": "bool",
          "name": "",
          "type": "bool"
        }
      ],
      "stateMutability": "nonpayable",
      "type": "function"
    },
    {
      "inputs": [
        {
          "internalType": "address",
          "name": "_owner",
          "type": "address"
        }
      ],
      "name": "balanceOf",
      "outputs": [
        {
          "internalType": "uint256",
          "name": "balance",
          "type": "uint256"
        }
      ],
      "stateMutability": "view",
      "type": "function",
      "constant": true
    },
    {
      "inputs": [
        {
          "internalType": "address",
          "name": "_spender",
          "type": "address"
        },
        {
          "internalType": "uint256",
          "name": "_value",
          "type": "uint256"
        }
      ],
      "name": "approve",
      "outputs": [
        {
          "internalType": "bool",
          "name": "success",
          "type": "bool"
        }
      ],
      "stateMutability": "nonpayable",
      "type": "function"
    },
    {
      "inputs": [
        {
          "internalType": "address",
          "name": "_owner",
          "type": "address"
        },
        {
          "internalType": "address",
          "name": "_spender",
          "type": "address"
        }
      ],
      "name": "allowance",
      "outputs": [
        {
          "internalType": "uint256",
          "name": "remaining",
          "type": "uint256"
        }
      ],
      "stateMutability": "view",
      "type": "function",
      "constant": true
    }
  ],
  "bytecode": "0x60806040523480156200001157600080fd5b50604051620018ca380380620018ca833981810160405281019062000037919062000290565b836000803373ffffffffffffffffffffffffffffffffffffffff1673ffffffffffffffffffffffffffffffffffffffff168152602001908152602001600020819055508360028190555082600490805190602001906200009992919062000134565b5081600560006101000a81548160ff021916908360ff1602179055508060069080519060200190620000cd92919062000134565b5033600360016101000a81548173ffffffffffffffffffffffffffffffffffffffff021916908373ffffffffffffffffffffffffffffffffffffffff1602179055506000600360006101000a81548160ff021916908315150217905550505050506200050f565b8280546200014290620003ec565b90600052602060002090601f016020900481019282620001665760008555620001b2565b82601f106200018157805160ff1916838001178555620001b2565b82800160010185558215620001b2579182015b82811115620001b157825182559160200191906001019062000194565b5b509050620001c19190620001c5565b5090565b5b80821115620001e0576000816000905550600101620001c6565b5090565b6000620001fb620001f58462000369565b62000340565b9050828152602081018484840111156200021a5762000219620004bb565b5b62000227848285620003b6565b509392505050565b600082601f830112620002475762000246620004b6565b5b815162000259848260208601620001e4565b91505092915050565b6000815190506200027381620004db565b92915050565b6000815190506200028a81620004f5565b92915050565b60008060008060808587031215620002ad57620002ac620004c5565b5b6000620002bd8782880162000262565b945050602085015167ffffffffffffffff811115620002e157620002e0620004c0565b5b620002ef878288016200022f565b9350506040620003028782880162000279565b925050606085015167ffffffffffffffff811115620003265762000325620004c0565b5b62000334878288016200022f565b91505092959194509250565b60006200034c6200035f565b90506200035a828262000422565b919050565b6000604051905090565b600067ffffffffffffffff82111562000387576200038662000487565b5b6200039282620004ca565b9050602081019050919050565b6000819050919050565b600060ff82169050919050565b60005b83811015620003d6578082015181840152602081019050620003b9565b83811115620003e6576000848401525b50505050565b600060028204905060018216806200040557607f821691505b602082108114156200041c576200041b62000458565b5b50919050565b6200042d82620004ca565b810181811067ffffffffffffffff821117156200044f576200044e62000487565b5b80604052505050565b7f4e487b7100000000000000000000000000000000000000000000000000000000600052602260045260246000fd5b7f4e487b7100000000000000000000000000000000000000000000000000000000600052604160045260246000fd5b600080fd5b600080fd5b600080fd5b600080fd5b6000601f19601f8301169050919050565b620004e6816200039f565b8114620004f257600080fd5b50565b6200050081620003a9565b81146200050c57600080fd5b50565b6113ab806200051f6000396000f3fe608060405234801561001057600080fd5b50600436106100ea5760003560e01c80633ecb51c01161008c5780638da5cb5b116100665780638da5cb5b1461028757806395d89b41146102a5578063a9059cbb146102c3578063dd62ed3e146102f3576100ea565b80633ecb51c0146101f75780635c6581651461022757806370a0823114610257576100ea565b806323b872dd116100c857806323b872dd1461015b57806327e235e31461018b57806328c5a005146101bb578063313ce567146101d9576100ea565b806306fdde03146100ef578063095ea7b31461010d57806318160ddd1461013d575b600080fd5b6100f7610323565b6040516101049190610f25565b60405180910390f35b61012760048036038101906101229190610d5e565b6103b1565b6040516101349190610f0a565b60405180910390f35b6101456104a3565b6040516101529190610fe7565b60405180910390f35b61017560048036038101906101709190610d0b565b6104a9565b6040516101829190610f0a565b60405180910390f35b6101a560048036038101906101a09190610c9e565b6107ee565b6040516101b29190610fe7565b60405180910390f35b6101c3610806565b6040516101d09190610f0a565b60405180910390f35b6101e161081d565b6040516101ee9190611002565b60405180910390f35b610211600480360381019061020c9190610d9e565b610830565b60405161021e9190610f0a565b60405180910390f35b610241600480360381019061023c9190610ccb565b61091b565b60405161024e9190610fe7565b60405180910390f35b610271600480360381019061026c9190610c9e565b610940565b60405161027e9190610fe7565b60405180910390f35b61028f610988565b60405161029c9190610eef565b60405180910390f35b6102ad6109ae565b6040516102ba9190610f25565b60405180910390f35b6102dd60048036038101906102d89190610d5e565b610a3c565b6040516102ea9190610f0a565b60405180910390f35b61030d60048036038101906103089190610ccb565b610bd8565b60405161031a9190610fe7565b60405180910390f35b600480546103309061114b565b80601f016020809104026020016040519081016040528092919081815260200182805461035c9061114b565b80156103a95780601f1061037e576101008083540402835291602001916103a9565b820191906000526020600020905b81548152906001019060200180831161038c57829003601f168201915b505050505081565b600081600160003373ffffffffffffffffffffffffffffffffffffffff1673ffffffffffffffffffffffffffffffffffffffff16815260200190815260200160002060008573ffffffffffffffffffffffffffffffffffffffff1673ffffffffffffffffffffffffffffffffffffffff168152602001908152602001600020819055508273ffffffffffffffffffffffffffffffffffffffff163373ffffffffffffffffffffffffffffffffffffffff167f8c5be1e5ebec7d5bd14f71427d1e84f3dd0314c0f7b2291e5b200ac8c7c3b925846040516104919190610fe7565b60405180910390a36001905092915050565b60025481565b600060011515600360009054906101000a900460ff16151514610501576040517f08c379a00000000000000000000000000000000000000000000000000000000081526004016104f890610fc7565b60405180910390fd5b6000808573ffffffffffffffffffffffffffffffffffffffff1673ffffffffffffffffffffffffffffffffffffffff16815260200190815260200160002054821115610582576040517f08c379a000000000000000000000000000000000000000000000000000000000815260040161057990610fa7565b60405180910390fd5b600160008573ffffffffffffffffffffffffffffffffffffffff1673ffffffffffffffffffffffffffffffffffffffff16815260200190815260200160002060003373ffffffffffffffffffffffffffffffffffffffff1673ffffffffffffffffffffffffffffffffffffffff16815260200190815260200160002054821115610641576040517f08c379a000000000000000000000000000000000000000000000000000000000815260040161063890610f87565b60405180910390fd5b816000808673ffffffffffffffffffffffffffffffffffffffff1673ffffffffffffffffffffffffffffffffffffffff168152602001908152602001600020600082825461068f919061108f565b9250508190555081600160008673ffffffffffffffffffffffffffffffffffffffff1673ffffffffffffffffffffffffffffffffffffffff16815260200190815260200160002060003373ffffffffffffffffffffffffffffffffffffffff1673ffffffffffffffffffffffffffffffffffffffff1681526020019081526020016000206000828254610722919061108f565b92505081905550816000808573ffffffffffffffffffffffffffffffffffffffff1673ffffffffffffffffffffffffffffffffffffffff16815260200190815260200160002060008282546107779190611039565b925050819055508273ffffffffffffffffffffffffffffffffffffffff168473ffffffffffffffffffffffffffffffffffffffff167fddf252ad1be2c89b69c2b068fc378daa952ba7f163c4a11628f55a4df523b3ef846040516107db9190610fe7565b60405180910390a3600190509392505050565b60006020528060005260406000206000915090505481565b6000600360009054906101000a900460ff16905090565b600560009054906101000a900460ff1681565b6000600360019054906101000a900473ffffffffffffffffffffffffffffffffffffffff1673ffffffffffffffffffffffffffffffffffffffff163373ffffffffffffffffffffffffffffffffffffffff16146108c2576040517f08c379a00000000000000000000000000000000000000000000000000000000081526004016108b990610f67565b60405180910390fd5b81600360006101000a81548160ff0219169083151502179055507f5fbaffa288f8108a8f17e2907f0aa0ff7a7b2947d842947c20d60aa88e53a4dc8260405161090b9190610f0a565b60405180910390a1819050919050565b6001602052816000526040600020602052806000526040600020600091509150505481565b60008060008373ffffffffffffffffffffffffffffffffffffffff1673ffffffffffffffffffffffffffffffffffffffff168152602001908152602001600020549050919050565b600360019054906101000a900473ffffffffffffffffffffffffffffffffffffffff1681565b600680546109bb9061114b565b80601f01602080910402602001604051908101604052809291908181526020018280546109e79061114b565b8015610a345780601f10610a0957610100808354040283529160200191610a34565b820191906000526020600020905b815481529060010190602001808311610a1757829003601f168201915b505050505081565b6000816000803373ffffffffffffffffffffffffffffffffffffffff1673ffffffffffffffffffffffffffffffffffffffff168152602001908152602001600020541015610abf576040517f08c379a0000000000000000000000000000000000000000000000000000000008152600401610ab690610f47565b60405180910390fd5b816000803373ffffffffffffffffffffffffffffffffffffffff1673ffffffffffffffffffffffffffffffffffffffff1681526020019081526020016000206000828254610b0d919061108f565b92505081905550816000808573ffffffffffffffffffffffffffffffffffffffff1673ffffffffffffffffffffffffffffffffffffffff1681526020019081526020016000206000828254610b629190611039565b925050819055508273ffffffffffffffffffffffffffffffffffffffff163373ffffffffffffffffffffffffffffffffffffffff167fddf252ad1be2c89b69c2b068fc378daa952ba7f163c4a11628f55a4df523b3ef84604051610bc69190610fe7565b60405180910390a36001905092915050565b6000600160008473ffffffffffffffffffffffffffffffffffffffff1673ffffffffffffffffffffffffffffffffffffffff16815260200190815260200160002060008373ffffffffffffffffffffffffffffffffffffffff1673ffffffffffffffffffffffffffffffffffffffff16815260200190815260200160002054905092915050565b600081359050610c6e81611330565b92915050565b600081359050610c8381611347565b92915050565b600081359050610c988161135e565b92915050565b600060208284031215610cb457610cb36111db565b5b6000610cc284828501610c5f565b91505092915050565b60008060408385031215610ce257610ce16111db565b5b6000610cf085828601610c5f565b9250506020610d0185828601610c5f565b9150509250929050565b600080600060608486031215610d2457610d236111db565b5b6000610d3286828701610c5f565b9350506020610d4386828701610c5f565b9250506040610d5486828701610c89565b9150509250925092565b60008060408385031215610d7557610d746111db565b5b6000610d8385828601610c5f565b9250506020610d9485828601610c89565b9150509250929050565b600060208284031215610db457610db36111db565b5b6000610dc284828501610c74565b91505092915050565b610dd4816110c3565b82525050565b610de3816110d5565b82525050565b6000610df48261101d565b610dfe8185611028565b9350610e0e818560208601611118565b610e17816111e0565b840191505092915050565b6000610e2f602f83611028565b9150610e3a826111f1565b604082019050919050565b6000610e52602883611028565b9150610e5d82611240565b604082019050919050565b6000610e75601083611028565b9150610e808261128f565b602082019050919050565b6000610e98602183611028565b9150610ea3826112b8565b604082019050919050565b6000610ebb601983611028565b9150610ec682611307565b602082019050919050565b610eda81611101565b82525050565b610ee98161110b565b82525050565b6000602082019050610f046000830184610dcb565b92915050565b6000602082019050610f1f6000830184610dda565b92915050565b60006020820190508181036000830152610f3f8184610de9565b905092915050565b60006020820190508181036000830152610f6081610e22565b9050919050565b60006020820190508181036000830152610f8081610e45565b9050919050565b60006020820190508181036000830152610fa081610e68565b9050919050565b60006020820190508181036000830152610fc081610e8b565b9050919050565b60006020820190508181036000830152610fe081610eae565b9050919050565b6000602082019050610ffc6000830184610ed1565b92915050565b60006020820190506110176000830184610ee0565b92915050565b600081519050919050565b600082825260208201905092915050565b600061104482611101565b915061104f83611101565b9250827fffffffffffffffffffffffffffffffffffffffffffffffffffffffffffffffff038211156110845761108361117d565b5b828201905092915050565b600061109a82611101565b91506110a583611101565b9250828210156110b8576110b761117d565b5b828203905092915050565b60006110ce826110e1565b9050919050565b60008115159050919050565b600073ffffffffffffffffffffffffffffffffffffffff82169050919050565b6000819050919050565b600060ff82169050919050565b60005b8381101561113657808201518184015260208101905061111b565b83811115611145576000848401525b50505050565b6000600282049050600182168061116357607f821691505b60208210811415611177576111766111ac565b5b50919050565b7f4e487b7100000000000000000000000000000000000000000000000000000000600052601160045260246000fd5b7f4e487b7100000000000000000000000000000000000000000000000000000000600052602260045260246000fd5b600080fd5b6000601f19601f8301169050919050565b7f746f6b656e2062616c616e6365206973206c6f776572207468616e207468652060008201527f76616c7565207265717565737465640000000000000000000000000000000000602082015250565b7f6f6e6c7920746865206f776e65722063616e207472696767657220746869732060008201527f616374696f6e2021000000000000000000000000000000000000000000000000602082015250565b7f6973206e6f7420616c6c6f776564202100000000000000000000000000000000600082015250565b7f737570706c6965722062616c616e6365206973206e6f7420656e6f756768742060008201527f2100000000000000000000000000000000000000000000000000000000000000602082015250565b7f7472616e73666572206973206e6f7420616c6c6f776564202100000000000000600082015250565b611339816110c3565b811461134457600080fd5b50565b611350816110d5565b811461135b57600080fd5b50565b61136781611101565b811461137257600080fd5b5056fea2646970667358221220566b3d62129c21fcdd456eae5939ba6277aca54dcfc076102377890a3176547d64736f6c63430008050033",
  "immutableReferences": {},
  "source": "// SPDX-License-Identifier: MIT\npragma solidity >=0.4.22 <0.9.0;\n\nimport \"./IERC20.sol\";\n\ncontract FST is IERC20 {\n    event TransferState(bool newState);\n\n    uint256 private constant MAX_UINT256 = 2**256 - 1;\n    mapping(address => uint256) public balances;\n    mapping(address => mapping(address => uint256)) public allowed;\n    uint256 public totalSupply;\n\n    bool private transferAllowed;\n    address public owner;\n\n    string public name; //fancy name: eg Simon Bucks\n    uint8 public decimals; //How many decimals to show.\n    string public symbol; //An identifier: eg SBX\n\n    constructor(\n        uint256 _initialAmount,\n        string memory _tokenName,\n        uint8 _decimalUnits,\n        string memory _tokenSymbol\n    ) {\n        balances[msg.sender] = _initialAmount; // Give the creator all initial tokens\n        totalSupply = _initialAmount; // Update total supply\n        name = _tokenName; // Set the name for display purposes\n        decimals = _decimalUnits; // Amount of decimals for display purposes\n        symbol = _tokenSymbol; // Set the symbol for display purposes\n        owner = msg.sender;\n        transferAllowed = false;\n    }\n\n    modifier _ownerOnly() {\n        require(\n            msg.sender == owner,\n            \"only the owner can trigger this action !\"\n        );\n        _;\n    }\n\n    modifier _isTransferAllowed() {\n        require(transferAllowed == true, \"transfer is not allowed !\");\n        _;\n    }\n\n    function getTransferState() public view override returns (bool) {\n        return transferAllowed;\n    }\n\n    function setTransferState(bool newState) public _ownerOnly returns (bool) {\n        transferAllowed = newState;\n        emit TransferState(newState);\n        return newState;\n    }\n\n    function transfer(address _to, uint256 _value)\n        public\n        override\n        returns (bool success)\n    {\n        require(\n            balances[msg.sender] >= _value,\n            \"token balance is lower than the value requested\"\n        );\n        balances[msg.sender] -= _value;\n        balances[_to] += _value;\n        emit Transfer(msg.sender, _to, _value); //solhint-disable-line indent, no-unused-vars\n        return true;\n    }\n\n    function transferFrom(\n        address _from,\n        address _to,\n        uint256 _value\n    ) public override _isTransferAllowed returns (bool) {\n        require(_value <= balances[_from], \"supplier balance is not enought !\");\n        require(_value <= allowed[_from][msg.sender], \"is not allowed !\");\n\n        balances[_from] -= _value;\n        allowed[_from][msg.sender] -= _value;\n        balances[_to] += _value;\n        emit Transfer(_from, _to, _value);\n        return true;\n    }\n\n    function balanceOf(address _owner)\n        public\n        view\n        override\n        returns (uint256 balance)\n    {\n        return balances[_owner];\n    }\n\n    function approve(address _spender, uint256 _value)\n        public\n        override\n        returns (bool success)\n    {\n        allowed[msg.sender][_spender] = _value;\n        emit Approval(msg.sender, _spender, _value); //solhint-disable-line indent, no-unused-vars\n        return true;\n    }\n\n    function allowance(address _owner, address _spender)\n        public\n        view\n        override\n        returns (uint256 remaining)\n    {\n        return allowed[_owner][_spender];\n    }\n}\n",
  "sourcePath": "/Users/guillaume/Documents/FS/FSToken/contracts/FSToken.sol",
  "compiler": {
    "name": "solc",
    "version": "0.8.5+commit.a4f2e591.Emscripten.clang"
  },
  "schemaVersion": "3.4.1",
  "updatedAt": "2021-06-23T21:56:57.155Z",
  "networkType": "ethereum",
  "devdoc": {
    "kind": "dev",
    "methods": {
      "allowance(address,address)": {
        "params": {
          "_owner": "The address of the account owning tokens",
          "_spender": "The address of the account able to transfer the tokens"
        },
        "returns": {
          "remaining": "Amount of remaining tokens allowed to spent"
        }
      },
      "approve(address,uint256)": {
        "params": {
          "_spender": "The address of the account able to transfer the tokens",
          "_value": "The amount of tokens to be approved for transfer"
        },
        "returns": {
          "success": "Whether the approval was successful or not"
        }
      },
      "balanceOf(address)": {
        "params": {
          "_owner": "The address from which the balance will be retrieved"
        },
        "returns": {
          "balance": "The balance"
        }
      },
      "transfer(address,uint256)": {
        "params": {
          "_to": "The address of the recipient",
          "_value": "The amount of token to be transferred"
        },
        "returns": {
          "success": "Whether the transfer was successful or not"
        }
      },
      "transferFrom(address,address,uint256)": {
        "params": {
          "_from": "The address of the sender",
          "_to": "The address of the recipient",
          "_value": "The amount of token to be transferred"
        },
        "returns": {
          "_0": "Whether the transfer was successful or not"
        }
      }
    },
    "version": 1
  },
  "userdoc": {
    "kind": "user",
    "methods": {
      "approve(address,uint256)": {
        "notice": "`msg.sender` approves `_spender` to spend `_value` tokens"
      },
      "transfer(address,uint256)": {
        "notice": "send `_value` token to `_to` from `msg.sender`"
      },
      "transferFrom(address,address,uint256)": {
        "notice": "send `_value` token to `_to` from `_from` on the condition it is approved by `_from`"
      }
    },
    "version": 1
  }
}